{"abi":[{"type":"constructor","inputs":[{"name":"_owner","type":"address","internalType":"address"},{"name":"_validators","type":"address[]","internalType":"address[]"},{"name":"_powers","type":"uint256[]","internalType":"uint256[]"}],"stateMutability":"nonpayable"},{"type":"function","name":"adjustEmergencyDisbursalBalance","inputs":[{"name":"tokenContract","type":"address","internalType":"address"},{"name":"_address","type":"string","internalType":"string"},{"name":"difference","type":"int256","internalType":"int256"}],"outputs":[],"stateMutability":"nonpayable"},{"type":"function","name":"deployERC20","inputs":[{"name":"_cosmosDenom","type":"string","internalType":"string"},{"name":"_name","type":"string","internalType":"string"},{"name":"_symbol","type":"string","internalType":"string"},{"name":"_decimals","type":"uint8","internalType":"uint8"}],"outputs":[],"stateMutability":"nonpayable"},{"type":"function","name":"lastBatchNonce","inputs":[{"name":"_erc20Address","type":"address","internalType":"address"}],"outputs":[{"name":"","type":"uint256","internalType":"uint256"}],"stateMutability":"view"},{"type":"function","name":"lastLogicCallNonce","inputs":[{"name":"_invalidation_id","type":"bytes32","internalType":"bytes32"}],"outputs":[{"name":"","type":"uint256","internalType":"uint256"}],"stateMutability":"view"},{"type":"function","name":"sendToNomic","inputs":[{"name":"_tokenContract","type":"address","internalType":"address"},{"name":"_destination","type":"string","internalType":"string"},{"name":"_amount","type":"uint256","internalType":"uint256"}],"outputs":[],"stateMutability":"nonpayable"},{"type":"function","name":"setEmergencyDisbursalBalance","inputs":[{"name":"tokenContract","type":"address","internalType":"address"},{"name":"script","type":"bytes","internalType":"bytes"},{"name":"balance","type":"uint256","internalType":"uint256"}],"outputs":[],"stateMutability":"nonpayable"},{"type":"function","name":"state_invalidationMapping","inputs":[{"name":"","type":"bytes32","internalType":"bytes32"}],"outputs":[{"name":"","type":"uint256","internalType":"uint256"}],"stateMutability":"view"},{"type":"function","name":"state_lastBatchNonces","inputs":[{"name":"","type":"address","internalType":"address"}],"outputs":[{"name":"","type":"uint256","internalType":"uint256"}],"stateMutability":"view"},{"type":"function","name":"state_lastEventNonce","inputs":[],"outputs":[{"name":"","type":"uint256","internalType":"uint256"}],"stateMutability":"view"},{"type":"function","name":"state_lastReturnNonce","inputs":[],"outputs":[{"name":"","type":"uint256","internalType":"uint256"}],"stateMutability":"view"},{"type":"function","name":"state_lastValsetCheckpoint","inputs":[],"outputs":[{"name":"","type":"bytes32","internalType":"bytes32"}],"stateMutability":"view"},{"type":"function","name":"state_lastValsetNonce","inputs":[],"outputs":[{"name":"","type":"uint256","internalType":"uint256"}],"stateMutability":"view"},{"type":"function","name":"state_owner","inputs":[],"outputs":[{"name":"","type":"address","internalType":"address"}],"stateMutability":"view"},{"type":"function","name":"state_returnAmounts","inputs":[{"name":"","type":"uint256","internalType":"uint256"}],"outputs":[{"name":"","type":"uint256","internalType":"uint256"}],"stateMutability":"view"},{"type":"function","name":"state_returnDests","inputs":[{"name":"","type":"uint256","internalType":"uint256"}],"outputs":[{"name":"","type":"string","internalType":"string"}],"stateMutability":"view"},{"type":"function","name":"state_returnSenders","inputs":[{"name":"","type":"uint256","internalType":"uint256"}],"outputs":[{"name":"","type":"address","internalType":"address"}],"stateMutability":"view"},{"type":"function","name":"submitBatch","inputs":[{"name":"_currentValset","type":"tuple","internalType":"struct ValsetArgs","components":[{"name":"validators","type":"address[]","internalType":"address[]"},{"name":"powers","type":"uint256[]","internalType":"uint256[]"},{"name":"valsetNonce","type":"uint256","internalType":"uint256"},{"name":"rewardAmount","type":"uint256","internalType":"uint256"},{"name":"rewardToken","type":"address","internalType":"address"}]},{"name":"_sigs","type":"tuple[]","internalType":"struct Signature[]","components":[{"name":"v","type":"uint8","internalType":"uint8"},{"name":"r","type":"bytes32","internalType":"bytes32"},{"name":"s","type":"bytes32","internalType":"bytes32"}]},{"name":"_amounts","type":"uint256[]","internalType":"uint256[]"},{"name":"_destinations","type":"address[]","internalType":"address[]"},{"name":"_fees","type":"uint256[]","internalType":"uint256[]"},{"name":"_batchNonce","type":"uint256","internalType":"uint256"},{"name":"_tokenContract","type":"address","internalType":"address"},{"name":"_batchTimeout","type":"uint256","internalType":"uint256"}],"outputs":[],"stateMutability":"nonpayable"},{"type":"function","name":"submitLogicCall","inputs":[{"name":"_currentValset","type":"tuple","internalType":"struct ValsetArgs","components":[{"name":"validators","type":"address[]","internalType":"address[]"},{"name":"powers","type":"uint256[]","internalType":"uint256[]"},{"name":"valsetNonce","type":"uint256","internalType":"uint256"},{"name":"rewardAmount","type":"uint256","internalType":"uint256"},{"name":"rewardToken","type":"address","internalType":"address"}]},{"name":"_sigs","type":"tuple[]","internalType":"struct Signature[]","components":[{"name":"v","type":"uint8","internalType":"uint8"},{"name":"r","type":"bytes32","internalType":"bytes32"},{"name":"s","type":"bytes32","internalType":"bytes32"}]},{"name":"_args","type":"tuple","internalType":"struct LogicCallArgs","components":[{"name":"transferAmounts","type":"uint256[]","internalType":"uint256[]"},{"name":"transferTokenContracts","type":"address[]","internalType":"address[]"},{"name":"feeAmounts","type":"uint256[]","internalType":"uint256[]"},{"name":"feeTokenContracts","type":"address[]","internalType":"address[]"},{"name":"logicContractAddress","type":"address","internalType":"address"},{"name":"payload","type":"bytes","internalType":"bytes"},{"name":"maxGas","type":"uint256","internalType":"uint256"},{"name":"timeOut","type":"uint256","internalType":"uint256"},{"name":"invalidationId","type":"bytes32","internalType":"bytes32"},{"name":"invalidationNonce","type":"uint256","internalType":"uint256"},{"name":"fallbackAddress","type":"address","internalType":"address"}]}],"outputs":[],"stateMutability":"nonpayable"},{"type":"function","name":"updateValset","inputs":[{"name":"_newValset","type":"tuple","internalType":"struct ValsetArgs","components":[{"name":"validators","type":"address[]","internalType":"address[]"},{"name":"powers","type":"uint256[]","internalType":"uint256[]"},{"name":"valsetNonce","type":"uint256","internalType":"uint256"},{"name":"rewardAmount","type":"uint256","internalType":"uint256"},{"name":"rewardToken","type":"address","internalType":"address"}]},{"name":"_currentValset","type":"tuple","internalType":"struct ValsetArgs","components":[{"name":"validators","type":"address[]","internalType":"address[]"},{"name":"powers","type":"uint256[]","internalType":"uint256[]"},{"name":"valsetNonce","type":"uint256","internalType":"uint256"},{"name":"rewardAmount","type":"uint256","internalType":"uint256"},{"name":"rewardToken","type":"address","internalType":"address"}]},{"name":"_sigs","type":"tuple[]","internalType":"struct Signature[]","components":[{"name":"v","type":"uint8","internalType":"uint8"},{"name":"r","type":"bytes32","internalType":"bytes32"},{"name":"s","type":"bytes32","internalType":"bytes32"}]}],"outputs":[],"stateMutability":"nonpayable"},{"type":"event","name":"ERC20DeployedEvent","inputs":[{"name":"_cosmosDenom","type":"string","indexed":false,"internalType":"string"},{"name":"_tokenContract","type":"address","indexed":true,"internalType":"address"},{"name":"_name","type":"string","indexed":false,"internalType":"string"},{"name":"_symbol","type":"string","indexed":false,"internalType":"string"},{"name":"_decimals","type":"uint8","indexed":false,"internalType":"uint8"},{"name":"_eventNonce","type":"uint256","indexed":false,"internalType":"uint256"}],"anonymous":false},{"type":"event","name":"LogicCallEvent","inputs":[{"name":"_invalidationId","type":"bytes32","indexed":false,"internalType":"bytes32"},{"name":"_invalidationNonce","type":"uint256","indexed":false,"internalType":"uint256"},{"name":"_returnData","type":"bytes","indexed":false,"internalType":"bytes"},{"name":"_eventNonce","type":"uint256","indexed":false,"internalType":"uint256"}],"anonymous":false},{"type":"event","name":"SendToNomicEvent","inputs":[{"name":"_tokenContract","type":"address","indexed":true,"internalType":"address"},{"name":"_sender","type":"address","indexed":true,"internalType":"address"},{"name":"_destination","type":"string","indexed":false,"internalType":"string"},{"name":"_amount","type":"uint256","indexed":false,"internalType":"uint256"},{"name":"_eventNonce","type":"uint256","indexed":false,"internalType":"uint256"}],"anonymous":false},{"type":"event","name":"TransactionBatchExecutedEvent","inputs":[{"name":"_batchNonce","type":"uint256","indexed":true,"internalType":"uint256"},{"name":"_token","type":"address","indexed":true,"internalType":"address"},{"name":"_eventNonce","type":"uint256","indexed":false,"internalType":"uint256"}],"anonymous":false},{"type":"event","name":"ValsetUpdatedEvent","inputs":[{"name":"_newValsetNonce","type":"uint256","indexed":true,"internalType":"uint256"},{"name":"_eventNonce","type":"uint256","indexed":false,"internalType":"uint256"},{"name":"_rewardAmount","type":"uint256","indexed":false,"internalType":"uint256"},{"name":"_rewardToken","type":"address","indexed":false,"internalType":"address"},{"name":"_validators","type":"address[]","indexed":false,"internalType":"address[]"},{"name":"_powers","type":"uint256[]","indexed":false,"internalType":"uint256[]"}],"anonymous":false},{"type":"error","name":"AddressEmptyCode","inputs":[{"name":"target","type":"address","internalType":"address"}]},{"type":"error","name":"AddressInsufficientBalance","inputs":[{"name":"account","type":"address","internalType":"address"}]},{"type":"error","name":"BatchTimedOut","inputs":[]},{"type":"error","name":"ECDSAInvalidSignature","inputs":[]},{"type":"error","name":"ECDSAInvalidSignatureLength","inputs":[{"name":"length","type":"uint256","internalType":"uint256"}]},{"type":"error","name":"ECDSAInvalidSignatureS","inputs":[{"name":"s","type":"bytes32","internalType":"bytes32"}]},{"type":"error","name":"FailedInnerCall","inputs":[]},{"type":"error","name":"IncorrectCheckpoint","inputs":[]},{"type":"error","name":"InsufficientPower","inputs":[{"name":"cumulativePower","type":"uint256","internalType":"uint256"},{"name":"powerThreshold","type":"uint256","internalType":"uint256"}]},{"type":"error","name":"InvalidBatchNonce","inputs":[{"name":"newNonce","type":"uint256","internalType":"uint256"},{"name":"currentNonce","type":"uint256","internalType":"uint256"}]},{"type":"error","name":"InvalidLogicCallFees","inputs":[]},{"type":"error","name":"InvalidLogicCallNonce","inputs":[{"name":"newNonce","type":"uint256","internalType":"uint256"},{"name":"currentNonce","type":"uint256","internalType":"uint256"}]},{"type":"error","name":"InvalidLogicCallTransfers","inputs":[]},{"type":"error","name":"InvalidSendToNomic","inputs":[]},{"type":"error","name":"InvalidSignature","inputs":[]},{"type":"error","name":"InvalidValsetNonce","inputs":[{"name":"newNonce","type":"uint256","internalType":"uint256"},{"name":"currentNonce","type":"uint256","internalType":"uint256"}]},{"type":"error","name":"LogicCallTimedOut","inputs":[]},{"type":"error","name":"MalformedBatch","inputs":[]},{"type":"error","name":"MalformedCurrentValidatorSet","inputs":[]},{"type":"error","name":"MalformedNewValidatorSet","inputs":[]},{"type":"error","name":"ReentrancyGuardReentrantCall","inputs":[]},{"type":"error","name":"SafeERC20FailedOperation","inputs":[{"name":"token","type":"address","internalType":"address"}]}],"bytecode":{"object":"0x60a060405260006004556001600555600060065534801561001f57600080fd5b50604051613f70380380613f7083398101604081905261003e91610321565b60016000558051825114158061005357508151155b156100715760405163c6617b7b60e01b815260040160405180910390fd5b6000805b82518110156100b857828181518110610090576100906103fb565b6020026020010151826100a39190610411565b915063aaaaaaaa82116100b857600101610075565b5063aaaaaaaa81116100ed5760405162bfb6ab60e01b81526004810182905263aaaaaaaa602482015260440160405180910390fd5b6101286040518060a001604052806060815260200160608152602001600081526020016000815260200160006001600160a01b031681525090565b506040805160a08101825284815260208101849052600091810182905260608101829052608081018290529061015d826101c4565b6001600160a01b038716608052600181905560045460055460405192935090917f76d08978c024a4bf8cbb30c67fd78fcaa1827cbc533e4e175f36d07e64ccf96a916101b19160009081908b908b906104af565b60405180910390a2505050505050610567565b6000806918da1958dadc1bda5b9d60b21b60001b9050600046308386604001518760000151886020015189606001518a6080015160405160200161020f9897969594939291906104fa565b60408051601f198184030181529190528051602090910120949350505050565b80516001600160a01b038116811461024657600080fd5b919050565b634e487b7160e01b600052604160045260246000fd5b604051601f8201601f191681016001600160401b03811182821017156102895761028961024b565b604052919050565b60006001600160401b038211156102aa576102aa61024b565b5060051b60200190565b600082601f8301126102c557600080fd5b81516102d86102d382610291565b610261565b8082825260208201915060208360051b8601019250858311156102fa57600080fd5b602085015b838110156103175780518352602092830192016102ff565b5095945050505050565b60008060006060848603121561033657600080fd5b61033f8461022f565b60208501519093506001600160401b0381111561035b57600080fd5b8401601f8101861361036c57600080fd5b805161037a6102d382610291565b8082825260208201915060208360051b85010192508883111561039c57600080fd5b6020840193505b828410156103c5576103b48461022f565b8252602093840193909101906103a3565b6040880151909550925050506001600160401b038111156103e557600080fd5b6103f1868287016102b4565b9150509250925092565b634e487b7160e01b600052603260045260246000fd5b8082018082111561043257634e487b7160e01b600052601160045260246000fd5b92915050565b600081518084526020840193506020830160005b828110156104735781516001600160a01b031686526020958601959091019060010161044c565b5093949350505050565b600081518084526020840193506020830160005b82811015610473578151865260209586019590910190600101610491565b85815284602082015260018060a01b038416604082015260a0606082015260006104dc60a0830185610438565b82810360808401526104ee818561047d565b98975050505050505050565b88815260018060a01b03881660208201528660408201528560608201526101006080820152600061052f610100830187610438565b82810360a0840152610541818761047d565b60c084019590955250506001600160a01b039190911660e0909101529695505050505050565b6080516139e0610590600039600081816102c4015281816105980152610c1201526139e06000f3fe608060405234801561001057600080fd5b50600436106101215760003560e01c8063aca6b1c1116100ad578063df97174b11610071578063df97174b1461029f578063eb00b2ef146102bf578063f2b53307146102e6578063f7955637146102ef578063fd79e9a51461030257600080fd5b8063aca6b1c11461020f578063b56561fe14610222578063c9d194d51461022b578063d2a8dbc71461024b578063daa9161b1461028c57600080fd5b806360ad5b38116100f457806360ad5b38146101a057806367240bc6146101c057806373b20547146101d35780637dfb6f86146101dc5780638690ff98146101fc57600080fd5b8063011b217414610126578063274975fa14610162578063374738d91461016b57806359ce5dde1461018b575b600080fd5b61014f610134366004611b5a565b6001600160a01b031660009081526002602052604090205490565b6040519081526020015b60405180910390f35b61014f60065481565b61017e610179366004611b75565b610315565b6040516101599190611bde565b61019e610199366004611c39565b6103af565b005b61014f6101ae366004611b75565b60086020526000908152604090205481565b61019e6101ce366004611c39565b61058d565b61014f60055481565b61014f6101ea366004611b75565b60036020526000908152604090205481565b61019e61020a366004611d32565b610714565b61019e61021d366004611e5f565b61099e565b61014f60045481565b61014f610239366004611b75565b60009081526003602052604090205490565b610274610259366004611b75565b6009602052600090815260409020546001600160a01b031681565b6040516001600160a01b039091168152602001610159565b61019e61029a366004611c39565b610c07565b61014f6102ad366004611b5a565b60026020526000908152604090205481565b6102747f000000000000000000000000000000000000000000000000000000000000000081565b61014f60015481565b61019e6102fd366004611f04565b610d85565b61019e6103103660046121ad565b610e21565b6007602052600090815260409020805461032e90612372565b80601f016020809104026020016040519081016040528092919081815260200182805461035a90612372565b80156103a75780601f1061037c576101008083540402835291602001916103a7565b820191906000526020600020905b81548152906001019060200180831161038a57829003601f168201915b505050505081565b6103b76111a4565b6040516370a0823160e01b81523060048201526000906001600160a01b038616906370a0823190602401602060405180830381865afa1580156103fe573d6000803e3d6000fd5b505050506040513d601f19601f8201168201806040525081019061042291906123a6565b90506104396001600160a01b0386163330856111ce565b6040516370a0823160e01b81523060048201526000906001600160a01b038716906370a0823190602401602060405180830381865afa158015610480573d6000803e3d6000fd5b505050506040513d601f19601f820116820180604052508101906104a491906123a6565b905060006104b283836123d5565b90508282116104d45760405163728614d360e01b815260040160405180910390fd5b6006546000818152600860209081526040808320859055600790915290206104fd878983612436565b50600081815260096020526040902080546001600160a01b0319163317905560065461052a9060016124f5565b600681905560405133916001600160a01b038b16917f58a3e95c14cd668e435fb5472910ea9157be6096f6a516c17f14aca4c55d748591610571918c918c91899190612531565b60405180910390a3505050506105876001600055565b50505050565b336001600160a01b037f000000000000000000000000000000000000000000000000000000000000000016146105f95760405162461bcd60e51b815260206004820152600c60248201526b155b985d5d1a1bdc9a5e995960a21b60448201526064015b60405180910390fd5b8115806106065750602382115b156106455760405162461bcd60e51b815260206004820152600f60248201526e496e76616c6964206164647265737360881b60448201526064016105f0565b6060600082121561066a57506040805180820190915260018152602d60f81b60208201525b600084848361068f60008712156106895761068487612558565b611235565b86611235565b6040516020016106a29493929190612574565b60408051601f1981840301815290829052632ce72eef60e11b8252915030906359ce5dde906106da908990859060009060040161261d565b600060405180830381600087803b1580156106f457600080fd5b505af1158015610708573d6000803e3d6000fd5b50505050505050505050565b61071c6111a4565b6001600160a01b0382166000908152600260205260409020546107409060016124f5565b8314610784576001600160a01b0382166000908152600260205260409081902054905163f7f920ad60e01b81526105f0918591600401918252602082015260400190565b8043106107a4576040516308b9266360e11b815260040160405180910390fd5b6107af8c8c8c6112c8565b6001546107c36107be8e612651565b61131e565b146107e15760405163723a340360e01b815260040160405180910390fd5b87861415806107f05750878414155b1561080e5760405163c1f97e3560e01b815260040160405180910390fd5b61086e8c8c8c46306f0e8e4c2dce6c2c6e8d2dedc84c2e8c6d60831b8f8f8f8f8f8f8f8f8f60405160200161084e9c9b9a99989796959493929190612760565b6040516020818303038152906040528051906020012063aaaaaaaa611389565b6001600160a01b0382166000908152600260205260408120849055805b8981101561091d576108ef8989838181106108a8576108a86127e7565b90506020020160208101906108bd9190611b5a565b8c8c848181106108cf576108cf6127e7565b90506020020135866001600160a01b03166114b09092919063ffffffff16565b868682818110610901576109016127e7565b905060200201358261091391906124f5565b915060010161088b565b506109326001600160a01b03841633836114b0565b506005546109419060016124f5565b60058190556040519081526001600160a01b0383169084907f02c7e81975f8edb86e2a0c038b7b86a49c744236abf0f6177ff5afc6986ab7089060200160405180910390a36109906001600055565b505050505050505050505050565b6109ad604084013560016124f5565b8460400135146109df576040805163e0e8edf360e01b81528186013560048201529084013560248201526044016105f0565b6109ec60208501856127fd565b90506109f885806127fd565b9050141580610a105750610a0c84806127fd565b1590505b15610a2e5760405163c01ba0ab60e01b815260040160405180910390fd5b610a398383836112c8565b6000805b610a4a60208701876127fd565b9050811015610a9757610a6060208701876127fd565b82818110610a7057610a706127e7565b9050602002013582610a8291906124f5565b915063aaaaaaaa8211610a9757600101610a3d565b5063aaaaaaaa8111610ac85760405162bfb6ab60e01b81526004810182905263aaaaaaaa60248201526044016105f0565b600154610ad76107be86612651565b14610af55760405163723a340360e01b815260040160405180910390fd5b6000610b036107be87612651565b9050610b168585858463aaaaaaaa611389565b600181905560408601356004556000610b3560a0880160808901611b5a565b6001600160a01b031614158015610b4f5750606086013515155b15610b7d57610b7d336060880135610b6d60a08a0160808b01611b5a565b6001600160a01b031691906114b0565b600554610b8b9060016124f5565b60058190556040870135907f76d08978c024a4bf8cbb30c67fd78fcaa1827cbc533e4e175f36d07e64ccf96a906060890135610bcd60a08b0160808c01611b5a565b610bd78b806127fd565b610be460208e018e6127fd565b604051610bf79796959493929190612846565b60405180910390a2505050505050565b336001600160a01b037f00000000000000000000000000000000000000000000000000000000000000001614610c6e5760405162461bcd60e51b815260206004820152600c60248201526b155b985d5d1a1bdc9a5e995960a21b60448201526064016105f0565b811580610c7b5750604082115b15610cb95760405162461bcd60e51b815260206004820152600e60248201526d125b9d985b1a59081cd8dc9a5c1d60921b60448201526064016105f0565b6000610cfa84848080601f0160208091040260200160405190810160405280939291908181526020018383808284376000920191909152506114e192505050565b610d0383611235565b604051602001610d14929190612895565b60408051601f1981840301815290829052632ce72eef60e11b8252915030906359ce5dde90610d4c908890859060009060040161261d565b600060405180830381600087803b158015610d6657600080fd5b505af1158015610d7a573d6000803e3d6000fd5b505050505050505050565b6000308686868686604051610d9990611b31565b610da89695949392919061292b565b604051809103906000f080158015610dc4573d6000803e3d6000fd5b509050806001600160a01b03167f82fe3a4fa49c6382d0c085746698ddbbafe6c2bf61285b19410644b5b26287c7898989898989896000604051610e0f98979695949392919061297a565b60405180910390a25050505050505050565b610e296111a4565b8060e001514310610e4d5760405163bcf37c2560e01b815260040160405180910390fd5b61012081015161010082015160009081526003602052604090205410610eaa5761012081015161010082015160009081526003602052604090819020549051629427e960e11b8152600481019290925260248201526044016105f0565b610eb58484846112c8565b600154610ec46107be86612651565b14610ee25760405163723a340360e01b815260040160405180910390fd5b60208101515181515114610f0957604051634298a95160e11b815260040160405180910390fd5b80606001515181604001515114610f3357604051634829247960e01b815260040160405180910390fd5b60004630681b1bd9da58d0d85b1b60ba1b846000015185602001518660400151876060015188608001518961014001518a60a001518b60e001518c61010001518d61012001518e60c00151604051602001610f9b9e9d9c9b9a99989796959493929190612a3e565b604051602081830303815290604052805190602001209050610fc48585858463aaaaaaaa611389565b5061012081015161010082015160009081526003602052604080822092909255905181903090610ff8908590602401612b0e565b60408051601f198184030181529181526020820180516001600160e01b031663fd79e9a560e01b1790525161102d9190612c0a565b6000604051808303816000865af19150503d806000811461106a576040519150601f19603f3d011682016040523d82523d6000602084013e61106f565b606091505b5091509150816110ed5760005b8351518110156110eb576110e3846101400151856000015183815181106110a5576110a56127e7565b6020026020010151866020015184815181106110c3576110c36127e7565b60200260200101516001600160a01b03166114b09092919063ffffffff16565b60010161107c565b505b60005b83604001515181101561113d576111353385604001518381518110611117576111176127e7565b6020026020010151866060015184815181106110c3576110c36127e7565b6001016110f0565b5060055461114c9060016124f5565b60058190556101008401516101208501516040517f7c2bb24f8e1b3725cb613d7f11ef97d9745cc97a0e40f730621c052d684077a193611190939291869190612c26565b60405180910390a150506105876001600055565b6002600054036111c757604051633ee5aeb560e01b815260040160405180910390fd5b6002600055565b6040516001600160a01b0384811660248301528381166044830152606482018390526105879186918216906323b872dd906084015b604051602081830303815290604052915060e01b6020820180516001600160e01b038381831617835250505050611679565b60606000611242836116dc565b60010190506000816001600160401b0381111561126157611261611fb8565b6040519080825280601f01601f19166020018201604052801561128b576020820181803683370190505b5090508181016020015b600019016f181899199a1a9b1b9c1cb0b131b232b360811b600a86061a8153600a8504945084611295575b509392505050565b6112d560208401846127fd565b90506112e184806127fd565b90501415806112fb5750806112f684806127fd565b905014155b156113195760405163c6617b7b60e01b815260040160405180910390fd5b505050565b6000806918da1958dadc1bda5b9d60b21b60001b9050600046308386604001518760000151886020015189606001518a60800151604051602001611369989796959493929190612c6c565b60408051601f198184030181529190528051602090910120949350505050565b6000805b61139787806127fd565b905081101561147e578585828181106113b2576113b26127e7565b6113c89260206060909202019081019150612cd9565b60ff1615611476576114206113dd88806127fd565b838181106113ed576113ed6127e7565b90506020020160208101906114029190611b5a565b85888885818110611415576114156127e7565b9050606002016117b5565b61143d57604051638baa579f60e01b815260040160405180910390fd5b61144a60208801886127fd565b8281811061145a5761145a6127e7565b905060200201358261146c91906124f5565b915082821161147e575b60010161138d565b508181116114a85760405162bfb6ab60e01b815260048101829052602481018390526044016105f0565b505050505050565b6040516001600160a01b0383811660248301526044820183905261131991859182169063a9059cbb90606401611203565b60606000825160026114f39190612cf4565b6001600160401b0381111561150a5761150a611fb8565b6040519080825280601f01601f191660200182016040528015611534576020820181803683370190505b5060408051808201909152601081526f181899199a1a9b1b9c1cb0b131b232b360811b602082015290915060005b845181101561167057818251868381518110611580576115806127e7565b0160200151611592919060f81c612d0b565b815181106115a2576115a26127e7565b01602001516001600160f81b031916836115bd836002612cf4565b815181106115cd576115cd6127e7565b60200101906001600160f81b031916908160001a9053508182518683815181106115f9576115f96127e7565b016020015161160b919060f81c612d1f565b8151811061161b5761161b6127e7565b01602001516001600160f81b03191683611636836002612cf4565b6116419060016124f5565b81518110611651576116516127e7565b60200101906001600160f81b031916908160001a905350600101611562565b50909392505050565b600061168e6001600160a01b03841683611847565b905080516000141580156116b35750808060200190518101906116b19190612d33565b155b1561131957604051635274afe760e01b81526001600160a01b03841660048201526024016105f0565b60008072184f03e93ff9f4daa797ed6e38ed64bf6a1f0160401b831061171b5772184f03e93ff9f4daa797ed6e38ed64bf6a1f0160401b830492506040015b6d04ee2d6d415b85acef81000000008310611747576d04ee2d6d415b85acef8100000000830492506020015b662386f26fc10000831061176557662386f26fc10000830492506010015b6305f5e100831061177d576305f5e100830492506008015b612710831061179157612710830492506004015b606483106117a3576064830492506002015b600a83106117af576001015b92915050565b6040517f19457468657265756d205369676e6564204d6573736167653a0a3332000000006020820152603c81018390526000908190605c0160408051601f198184030181529190528051602091820120915061182890829061181990860186612cd9565b85602001358660400135611855565b6001600160a01b0316856001600160a01b0316149150505b9392505050565b606061184083836000611883565b60008060008061186788888888611920565b92509250925061187782826119ef565b50909695505050505050565b6060814710156118a85760405163cd78605960e01b81523060048201526024016105f0565b600080856001600160a01b031684866040516118c49190612c0a565b60006040518083038185875af1925050503d8060008114611901576040519150601f19603f3d011682016040523d82523d6000602084013e611906565b606091505b5091509150611916868383611aac565b9695505050505050565b600080807f7fffffffffffffffffffffffffffffff5d576e7357a4501ddfe92f46681b20a084111561195b57506000915060039050826119e5565b604080516000808252602082018084528a905260ff891692820192909252606081018790526080810186905260019060a0016020604051602081039080840390855afa1580156119af573d6000803e3d6000fd5b5050604051601f1901519150506001600160a01b0381166119db575060009250600191508290506119e5565b9250600091508190505b9450945094915050565b6000826003811115611a0357611a03612d55565b03611a0c575050565b6001826003811115611a2057611a20612d55565b03611a3e5760405163f645eedf60e01b815260040160405180910390fd5b6002826003811115611a5257611a52612d55565b03611a735760405163fce698f760e01b8152600481018290526024016105f0565b6003826003811115611a8757611a87612d55565b03611aa8576040516335e2f38360e21b8152600481018290526024016105f0565b5050565b606082611ac157611abc82611b08565b611840565b8151158015611ad857506001600160a01b0384163b155b15611b0157604051639996b31560e01b81526001600160a01b03851660048201526024016105f0565b5080611840565b805115611b185780518082602001fd5b604051630a12f52160e11b815260040160405180910390fd5b610c3f80612d6c83390190565b80356001600160a01b0381168114611b5557600080fd5b919050565b600060208284031215611b6c57600080fd5b61184082611b3e565b600060208284031215611b8757600080fd5b5035919050565b60005b83811015611ba9578181015183820152602001611b91565b50506000910152565b60008151808452611bca816020860160208601611b8e565b601f01601f19169290920160200192915050565b6020815260006118406020830184611bb2565b60008083601f840112611c0357600080fd5b5081356001600160401b03811115611c1a57600080fd5b602083019150836020828501011115611c3257600080fd5b9250929050565b60008060008060608587031215611c4f57600080fd5b611c5885611b3e565b935060208501356001600160401b03811115611c7357600080fd5b611c7f87828801611bf1565b9598909750949560400135949350505050565b600060a08284031215611ca457600080fd5b50919050565b60008083601f840112611cbc57600080fd5b5081356001600160401b03811115611cd357600080fd5b602083019150836020606083028501011115611c3257600080fd5b60008083601f840112611d0057600080fd5b5081356001600160401b03811115611d1757600080fd5b6020830191508360208260051b8501011115611c3257600080fd5b6000806000806000806000806000806000806101008d8f031215611d5557600080fd5b6001600160401b038d351115611d6a57600080fd5b611d778e8e358f01611c92565b9b506001600160401b0360208e01351115611d9157600080fd5b611da18e60208f01358f01611caa565b909b5099506001600160401b0360408e01351115611dbe57600080fd5b611dce8e60408f01358f01611cee565b90995097506001600160401b0360608e01351115611deb57600080fd5b611dfb8e60608f01358f01611cee565b90975095506001600160401b0360808e01351115611e1857600080fd5b611e288e60808f01358f01611cee565b909550935060a08d01359250611e4060c08e01611b3e565b9150600060e08e01359050809150509295989b509295989b509295989b565b60008060008060608587031215611e7557600080fd5b84356001600160401b03811115611e8b57600080fd5b611e9787828801611c92565b94505060208501356001600160401b03811115611eb357600080fd5b611ebf87828801611c92565b93505060408501356001600160401b03811115611edb57600080fd5b611ee787828801611caa565b95989497509550505050565b803560ff81168114611b5557600080fd5b60008060008060008060006080888a031215611f1f57600080fd5b87356001600160401b03811115611f3557600080fd5b611f418a828b01611bf1565b90985096505060208801356001600160401b03811115611f6057600080fd5b611f6c8a828b01611bf1565b90965094505060408801356001600160401b03811115611f8b57600080fd5b611f978a828b01611bf1565b9094509250611faa905060608901611ef3565b905092959891949750929550565b634e487b7160e01b600052604160045260246000fd5b60405161016081016001600160401b0381118282101715611ff157611ff1611fb8565b60405290565b60405160a081016001600160401b0381118282101715611ff157611ff1611fb8565b604051601f8201601f191681016001600160401b038111828210171561204157612041611fb8565b604052919050565b60006001600160401b0382111561206257612062611fb8565b5060051b60200190565b600082601f83011261207d57600080fd5b813561209061208b82612049565b612019565b8082825260208201915060208360051b8601019250858311156120b257600080fd5b602085015b838110156120cf5780358352602092830192016120b7565b5095945050505050565b600082601f8301126120ea57600080fd5b81356120f861208b82612049565b8082825260208201915060208360051b86010192508583111561211a57600080fd5b602085015b838110156120cf5761213081611b3e565b83526020928301920161211f565b600082601f83011261214f57600080fd5b81356001600160401b0381111561216857612168611fb8565b61217b601f8201601f1916602001612019565b81815284602083860101111561219057600080fd5b816020850160208301376000918101602001919091529392505050565b600080600080606085870312156121c357600080fd5b84356001600160401b038111156121d957600080fd5b6121e587828801611c92565b94505060208501356001600160401b0381111561220157600080fd5b61220d87828801611caa565b90945092505060408501356001600160401b0381111561222c57600080fd5b8501610160818803121561223f57600080fd5b612247611fce565b81356001600160401b0381111561225d57600080fd5b6122698982850161206c565b82525060208201356001600160401b0381111561228557600080fd5b612291898285016120d9565b60208301525060408201356001600160401b038111156122b057600080fd5b6122bc8982850161206c565b60408301525060608201356001600160401b038111156122db57600080fd5b6122e7898285016120d9565b6060830152506122f960808301611b3e565b608082015260a08201356001600160401b0381111561231757600080fd5b6123238982850161213e565b60a08301525060c0828101359082015260e08083013590820152610100808301359082015261012080830135908201526123606101408301611b3e565b61014082015294979396509194505050565b600181811c9082168061238657607f821691505b602082108103611ca457634e487b7160e01b600052602260045260246000fd5b6000602082840312156123b857600080fd5b5051919050565b634e487b7160e01b600052601160045260246000fd5b818103818111156117af576117af6123bf565b601f82111561131957806000526020600020601f840160051c8101602085101561240f5750805b601f840160051c820191505b8181101561242f576000815560010161241b565b5050505050565b6001600160401b0383111561244d5761244d611fb8565b6124618361245b8354612372565b836123e8565b6000601f841160018114612495576000851561247d5750838201355b600019600387901b1c1916600186901b17835561242f565b600083815260209020601f19861690835b828110156124c657868501358255602094850194600190920191016124a6565b50868210156124e35760001960f88860031b161c19848701351681555b505060018560011b0183555050505050565b808201808211156117af576117af6123bf565b81835281816020850137506000828201602090810191909152601f909101601f19169091010190565b606081526000612545606083018688612508565b6020830194909452506040015292915050565b6000600160ff1b820161256d5761256d6123bf565b5060000390565b7f7b2274797065223a2261646a757374456d657267656e63794469736275727361815271362130b630b731b29116113230ba30911d1160711b60208201528385603283013760008482016a11161130b6b7bab73a111d60a91b603282015284516125e581603d840160208901611b8e565b603281830101915050835161260181600b840160208801611b8e565b607d60f81b9101600b810191909152600c019695505050505050565b6001600160a01b038416815260606020820181905260009061264190830185611bb2565b9050826040830152949350505050565b600060a0823603121561266357600080fd5b61266b611ff7565b82356001600160401b0381111561268157600080fd5b61268d368286016120d9565b82525060208301356001600160401b038111156126a957600080fd5b6126b53682860161206c565b60208301525060408381013590820152606080840135908201526126db60808401611b3e565b608082015292915050565b81835260006001600160fb1b038311156126ff57600080fd5b8260051b80836020870137939093016020019392505050565b81835260208301925060008160005b84811015612756576001600160a01b0361274083611b3e565b1686526020958601959190910190600101612727565b5093949350505050565b8c815260018060a01b038c1660208201528a60408201526101206060820152600061279061012083018b8d6126e6565b82810360808401526127a3818a8c612718565b905082810360a08401526127b881888a6126e6565b60c084019690965250506001600160a01b039290921660e0830152610100909101529998505050505050505050565b634e487b7160e01b600052603260045260246000fd5b6000808335601e1984360301811261281457600080fd5b8301803591506001600160401b0382111561282e57600080fd5b6020019150600581901b3603821315611c3257600080fd5b87815286602082015260018060a01b038616604082015260a06060820152600061287460a083018688612718565b82810360808401526128878185876126e6565b9a9950505050505050505050565b7f7b2274797065223a22736574456d657267656e637944697362757273616c426181526e3630b731b29116113230ba30911d1160891b6020820152600083516128e581602f850160208801611b8e565b6b1116113130b630b731b2911d60a11b602f91840191820152835161291181603b840160208801611b8e565b607d60f81b603b9290910191820152603c01949350505050565b6001600160a01b03871681526080602082018190526000906129509083018789612508565b8281036040840152612963818688612508565b91505060ff83166060830152979650505050505050565b60a08152600061298e60a083018a8c612508565b82810360208401526129a181898b612508565b905082810360408401526129b6818789612508565b60ff9590951660608401525050608001529695505050505050565b600081518084526020840193506020830160005b828110156127565781518652602095860195909101906001016129e5565b600081518084526020840193506020830160005b828110156127565781516001600160a01b0316865260209586019590910190600101612a17565b8e81526001600160a01b038e1660208201528c60408201526101c060608201526000612a6e6101c083018e6129d1565b8281036080840152612a80818e612a03565b905082810360a0840152612a94818d6129d1565b905082810360c0840152612aa8818c612a03565b6001600160a01b038b1660e085015290506001600160a01b038916610100840152828103610120840152612adc8189611bb2565b915050856101408301528461016083015283610180830152826101a08301529f9e505050505050505050505050505050565b60208152600082516101606020840152612b2c6101808401826129d1565b90506020840151601f19848303016040850152612b498282612a03565b9150506040840151601f19848303016060850152612b6782826129d1565b9150506060840151601f19848303016080850152612b858282612a03565b9150506080840151612ba260a08501826001600160a01b03169052565b5060a0840151838203601f190160c0850152612bbe8282611bb2565b91505060c084015160e084015260e08401516101008401526101008401516101208401526101208401516101408401526101408401516112c06101608501826001600160a01b03169052565b60008251612c1c818460208701611b8e565b9190910192915050565b848152836020820152608060408201526000612c456080830185611bb2565b905082606083015295945050505050565b634e487b7160e01b600052601260045260246000fd5b88815260018060a01b038816602082015286604082015285606082015261010060808201526000612ca1610100830187612a03565b82810360a0840152612cb381876129d1565b60c084019590955250506001600160a01b039190911660e0909101529695505050505050565b600060208284031215612ceb57600080fd5b61184082611ef3565b80820281158282048414176117af576117af6123bf565b600082612d1a57612d1a612c56565b500490565b600082612d2e57612d2e612c56565b500690565b600060208284031215612d4557600080fd5b8151801515811461184057600080fd5b634e487b7160e01b600052602160045260246000fdfe608060405234801561001057600080fd5b50604051610c3f380380610c3f83398101604081905261002f916102aa565b8282600361003d83826103d4565b50600461004a82826103d4565b5050600580546001600160a01b038716610100026001600160a81b031990911660ff8516171790555061007f84600019610088565b505050506104b9565b6001600160a01b0382166100b75760405163ec442f0560e01b8152600060048201526024015b60405180910390fd5b6100c3600083836100c7565b5050565b6001600160a01b0383166100f25780600260008282546100e79190610492565b909155506101649050565b6001600160a01b038316600090815260208190526040902054818110156101455760405163391434e360e21b81526001600160a01b038516600482015260248101829052604481018390526064016100ae565b6001600160a01b03841660009081526020819052604090209082900390555b6001600160a01b0382166101805760028054829003905561019f565b6001600160a01b03821660009081526020819052604090208054820190555b816001600160a01b0316836001600160a01b03167fddf252ad1be2c89b69c2b068fc378daa952ba7f163c4a11628f55a4df523b3ef836040516101e491815260200190565b60405180910390a3505050565b634e487b7160e01b600052604160045260246000fd5b600082601f83011261021857600080fd5b81516001600160401b03811115610231576102316101f1565b604051601f8201601f19908116603f011681016001600160401b038111828210171561025f5761025f6101f1565b60405281815283820160200185101561027757600080fd5b60005b828110156102965760208186018101518383018201520161027a565b506000918101602001919091529392505050565b600080600080608085870312156102c057600080fd5b84516001600160a01b03811681146102d757600080fd5b60208601519094506001600160401b038111156102f357600080fd5b6102ff87828801610207565b604087015190945090506001600160401b0381111561031d57600080fd5b61032987828801610207565b925050606085015160ff8116811461034057600080fd5b939692955090935050565b600181811c9082168061035f57607f821691505b60208210810361037f57634e487b7160e01b600052602260045260246000fd5b50919050565b601f8211156103cf57806000526020600020601f840160051c810160208510156103ac5750805b601f840160051c820191505b818110156103cc57600081556001016103b8565b50505b505050565b81516001600160401b038111156103ed576103ed6101f1565b610401816103fb845461034b565b84610385565b6020601f821160018114610435576000831561041d5750848201515b600019600385901b1c1916600184901b1784556103cc565b600084815260208120601f198516915b828110156104655787850151825560209485019460019092019101610445565b50848210156104835786840151600019600387901b60f8161c191681555b50505050600190811b01905550565b808201808211156104b357634e487b7160e01b600052601160045260246000fd5b92915050565b610777806104c86000396000f3fe608060405234801561001057600080fd5b50600436106100935760003560e01c8063313ce56711610066578063313ce5671461010257806370a082311461011757806395d89b4114610140578063a9059cbb14610148578063dd62ed3e1461015b57600080fd5b806306fdde0314610098578063095ea7b3146100b657806318160ddd146100d957806323b872dd146100ef575b600080fd5b6100a0610194565b6040516100ad91906105a5565b60405180910390f35b6100c96100c436600461060f565b610226565b60405190151581526020016100ad565b6100e1610240565b6040519081526020016100ad565b6100c96100fd366004610639565b610271565b60055460405160ff90911681526020016100ad565b6100e1610125366004610676565b6001600160a01b031660009081526020819052604090205490565b6100a0610295565b6100c961015636600461060f565b6102a4565b6100e1610169366004610698565b6001600160a01b03918216600090815260016020908152604080832093909416825291909152205490565b6060600380546101a3906106cb565b80601f01602080910402602001604051908101604052809291908181526020018280546101cf906106cb565b801561021c5780601f106101f15761010080835404028352916020019161021c565b820191906000526020600020905b8154815290600101906020018083116101ff57829003601f168201915b5050505050905090565b6000336102348185856102b2565b60019150505b92915050565b60055461010090046001600160a01b031660009081526020819052604081205461026c9060001961071b565b905090565b60003361027f8582856102c4565b61028a858585610347565b506001949350505050565b6060600480546101a3906106cb565b600033610234818585610347565b6102bf83838360016103a6565b505050565b6001600160a01b038381166000908152600160209081526040808320938616835292905220546000198114610341578181101561033257604051637dc7a0d960e11b81526001600160a01b038416600482015260248101829052604481018390526064015b60405180910390fd5b610341848484840360006103a6565b50505050565b6001600160a01b03831661037157604051634b637e8f60e11b815260006004820152602401610329565b6001600160a01b03821661039b5760405163ec442f0560e01b815260006004820152602401610329565b6102bf83838361047b565b6001600160a01b0384166103d05760405163e602df0560e01b815260006004820152602401610329565b6001600160a01b0383166103fa57604051634a1406b160e11b815260006004820152602401610329565b6001600160a01b038085166000908152600160209081526040808320938716835292905220829055801561034157826001600160a01b0316846001600160a01b03167f8c5be1e5ebec7d5bd14f71427d1e84f3dd0314c0f7b2291e5b200ac8c7c3b9258460405161046d91815260200190565b60405180910390a350505050565b6001600160a01b0383166104a657806002600082825461049b919061072e565b909155506105189050565b6001600160a01b038316600090815260208190526040902054818110156104f95760405163391434e360e21b81526001600160a01b03851660048201526024810182905260448101839052606401610329565b6001600160a01b03841660009081526020819052604090209082900390555b6001600160a01b03821661053457600280548290039055610553565b6001600160a01b03821660009081526020819052604090208054820190555b816001600160a01b0316836001600160a01b03167fddf252ad1be2c89b69c2b068fc378daa952ba7f163c4a11628f55a4df523b3ef8360405161059891815260200190565b60405180910390a3505050565b602081526000825180602084015260005b818110156105d357602081860181015160408684010152016105b6565b506000604082850101526040601f19601f83011684010191505092915050565b80356001600160a01b038116811461060a57600080fd5b919050565b6000806040838503121561062257600080fd5b61062b836105f3565b946020939093013593505050565b60008060006060848603121561064e57600080fd5b610657846105f3565b9250610665602085016105f3565b929592945050506040919091013590565b60006020828403121561068857600080fd5b610691826105f3565b9392505050565b600080604083850312156106ab57600080fd5b6106b4836105f3565b91506106c2602084016105f3565b90509250929050565b600181811c908216806106df57607f821691505b6020821081036106ff57634e487b7160e01b600052602260045260246000fd5b50919050565b634e487b7160e01b600052601160045260246000fd5b8181038181111561023a5761023a610705565b8082018082111561023a5761023a61070556fea264697066735822122024c79efa80d76fa77ae6b1ca389ed0fdae409820955e53b98e9246aa7ec3ca6164736f6c634300081a0033a2646970667358221220adc1c892908878fe98baf69a2b7322c2a5b158f0be3c9cafd319f28b0bdc9c8664736f6c634300081a0033","linkReferences":{}},"methodIdentifiers":{"adjustEmergencyDisbursalBalance(address,string,int256)":"67240bc6","deployERC20(string,string,string,uint8)":"f7955637","lastBatchNonce(address)":"011b2174","lastLogicCallNonce(bytes32)":"c9d194d5","sendToNomic(address,string,uint256)":"59ce5dde","setEmergencyDisbursalBalance(address,bytes,uint256)":"daa9161b","state_invalidationMapping(bytes32)":"7dfb6f86","state_lastBatchNonces(address)":"df97174b","state_lastEventNonce()":"73b20547","state_lastReturnNonce()":"274975fa","state_lastValsetCheckpoint()":"f2b53307","state_lastValsetNonce()":"b56561fe","state_owner()":"eb00b2ef","state_returnAmounts(uint256)":"60ad5b38","state_returnDests(uint256)":"374738d9","state_returnSenders(uint256)":"d2a8dbc7","submitBatch((address[],uint256[],uint256,uint256,address),(uint8,bytes32,bytes32)[],uint256[],address[],uint256[],uint256,address,uint256)":"8690ff98","submitLogicCall((address[],uint256[],uint256,uint256,address),(uint8,bytes32,bytes32)[],(uint256[],address[],uint256[],address[],address,bytes,uint256,uint256,bytes32,uint256,address))":"fd79e9a5","updateValset((address[],uint256[],uint256,uint256,address),(address[],uint256[],uint256,uint256,address),(uint8,bytes32,bytes32)[])":"aca6b1c1"},"id":2}